{
  "transactions": [
    {
      "hash": "0x016e296a050582cc60ec96fec07ef920f0d93f3d2375f740e3eac228b670ea0d",
      "transactionType": "CALL",
      "contractName": null,
      "contractAddress": "0x9ddfaca8183c41ad55329bdeed9f6a8d53168b1b",
      "function": "createSubscription()",
      "arguments": [],
      "transaction": {
        "from": "0xc7e40aa62693cf20a317207372337044f1ec0bf0",
        "to": "0x9ddfaca8183c41ad55329bdeed9f6a8d53168b1b",
        "gas": "0x25056",
        "value": "0x0",
        "input": "0xa21a23e4",
        "nonce": "0x10",
        "chainId": "0xaa36a7"
      },
      "additionalContracts": [],
      "isFixedGasLimit": false
    },
    {
      "hash": "0x6426bbf18127e72709cda0e00ddf647f70f35b0b14fda4f92dc3684eeac65599",
      "transactionType": "CALL",
      "contractName": "LinkToken",
      "contractAddress": "0x779877a7b0d9e8603169ddbd7836e478b4624789",
      "function": "transferAndCall(address,uint256,bytes)",
      "arguments": [
        "0x9DdfaCa8183c41ad55329BdeeD9F6A8d53168B1B",
        "3000000000000000000",
        "0x2edbbd2498fc8c9739a8596474686fe4a713d1e0e8b3f5938eb880d00796dec2"
      ],
      "transaction": {
        "from": "0xc7e40aa62693cf20a317207372337044f1ec0bf0",
        "to": "0x779877a7b0d9e8603169ddbd7836e478b4624789",
        "gas": "0x1c1ff",
        "value": "0x0",
        "input": "0x4000aea00000000000000000000000009ddfaca8183c41ad55329bdeed9f6a8d53168b1b00000000000000000000000000000000000000000000000029a2241af62c0000000000000000000000000000000000000000000000000000000000000000006000000000000000000000000000000000000000000000000000000000000000202edbbd2498fc8c9739a8596474686fe4a713d1e0e8b3f5938eb880d00796dec2",
        "nonce": "0x11",
        "chainId": "0xaa36a7"
      },
      "additionalContracts": [],
      "isFixedGasLimit": false
    }
  ],
  "receipts": [
    {
      "status": "0x1",
      "cumulativeGasUsed": "0x2cd7906",
      "logs": [
        {
          "address": "0x9ddfaca8183c41ad55329bdeed9f6a8d53168b1b",
          "topics": [
            "0x1d3015d7ba850fa198dc7b1a3f5d42779313a681035f77c8c03764c61005518d",
            "0xf0e07a874b151ae134aefe1982c71762c66dfdc65b63e8dba6cfa75b8c6d43fb"
          ],
          "data": "0x000000000000000000000000c7e40aa62693cf20a317207372337044f1ec0bf0",
          "blockHash": "0x51db5c94f01a20e8a185cbb8efafd8cb163ffcbdb7b041f03a62bc6ed83c23a8",
          "blockNumber": "0x9ee359",
          "blockTimestamp": "0x69ae5928",
          "transactionHash": "0x016e296a050582cc60ec96fec07ef920f0d93f3d2375f740e3eac228b670ea0d",
          "transactionIndex": "0x140",
          "logIndex": "0x39a",
          "removed": false
        }
      ],
      "logsBloom": "0x00000000000000000000000000000000000000000020000000000000000000000000000000000000000000000000000000000000000000000000000000000000000000000000000000000000000000000000000000000400000000000000000008000000000100000000000000000000000004000000000000000000000000000080000000000000000000010000000000000000000000000000000000000000000000000000000000000000000000000000000000000000000000000000000800000000000000000000000000000000000000000000080000000000000000000000000000000000000000000000000000000000000000000000000000000000",
      "type": "0x2",
      "transactionHash": "0x016e296a050582cc60ec96fec07ef920f0d93f3d2375f740e3eac228b670ea0d",
      "transactionIndex": "0x140",
      "blockHash": "0x51db5c94f01a20e8a185cbb8efafd8cb163ffcbdb7b041f03a62bc6ed83c23a8",
      "blockNumber": "0x9ee359",
      "gasUsed": "0x1acd8",
      "effectiveGasPrice": "0x18141c",
      "from": "0xc7e40aa62693cf20a317207372337044f1ec0bf0",
      "to": "0x9ddfaca8183c41ad55329bdeed9f6a8d53168b1b",
      "contractAddress": null
    }
  ],
  "libraries": [],
  "pending": [],
  "returns": {},
  "timestamp": 1773033770559,
  "chain": 11155111,
  "commit": "09568f1"
}