{
  "transactions": [
    {
      "hash": "0x5ed842a21c2cd2d8d1e431e13e89df938b422bf3e117d37f2fdb269d2e5e1444",
      "transactionType": "CALL",
      "contractName": null,
      "contractAddress": "0x9ddfaca8183c41ad55329bdeed9f6a8d53168b1b",
      "function": "createSubscription()",
      "arguments": [],
      "transaction": {
        "from": "0xc7e40aa62693cf20a317207372337044f1ec0bf0",
        "to": "0x9ddfaca8183c41ad55329bdeed9f6a8d53168b1b",
        "gas": "0x25056",
        "value": "0x0",
        "input": "0xa21a23e4",
        "nonce": "0x14",
        "chainId": "0xaa36a7"
      },
      "additionalContracts": [],
      "isFixedGasLimit": false
    },
    {
      "hash": "0x4fa38b9ab0be75405ccac058b0806b18e6d3a3a901585b3d2ab010a243630158",
      "transactionType": "CALL",
      "contractName": "LinkToken",
      "contractAddress": "0x779877a7b0d9e8603169ddbd7836e478b4624789",
      "function": "transferAndCall(address,uint256,bytes)",
      "arguments": [
        "0x9DdfaCa8183c41ad55329BdeeD9F6A8d53168B1B",
        "3000000000000000000",
        "0xb65eb937fb77ef2b61dc5fe30901e91d9c6d15286ee550ebd5686aecc9861c1b"
      ],
      "transaction": {
        "from": "0xc7e40aa62693cf20a317207372337044f1ec0bf0",
        "to": "0x779877a7b0d9e8603169ddbd7836e478b4624789",
        "gas": "0x1c1ff",
        "value": "0x0",
        "input": "0x4000aea00000000000000000000000009ddfaca8183c41ad55329bdeed9f6a8d53168b1b00000000000000000000000000000000000000000000000029a2241af62c000000000000000000000000000000000000000000000000000000000000000000600000000000000000000000000000000000000000000000000000000000000020b65eb937fb77ef2b61dc5fe30901e91d9c6d15286ee550ebd5686aecc9861c1b",
        "nonce": "0x15",
        "chainId": "0xaa36a7"
      },
      "additionalContracts": [],
      "isFixedGasLimit": false
    }
  ],
  "receipts": [
    {
      "status": "0x1",
      "cumulativeGasUsed": "0x12bd95d",
      "logs": [
        {
          "address": "0x9ddfaca8183c41ad55329bdeed9f6a8d53168b1b",
          "topics": [
            "0x1d3015d7ba850fa198dc7b1a3f5d42779313a681035f77c8c03764c61005518d",
            "0x4dec6d52fa9b46ab85a98a2989cdbed97a41094bccd6c04c255b70e9f165e428"
          ],
          "data": "0x000000000000000000000000c7e40aa62693cf20a317207372337044f1ec0bf0",
          "blockHash": "0xe01a3f4623e0bac83197107188a28f159e7d2c79f9295c0a3df9f3e3f96a9abd",
          "blockNumber": "0x9ee363",
          "blockTimestamp": "0x69ae59e8",
          "transactionHash": "0x5ed842a21c2cd2d8d1e431e13e89df938b422bf3e117d37f2fdb269d2e5e1444",
          "transactionIndex": "0x6c",
          "logIndex": "0x177",
          "removed": false
        }
      ],
      "logsBloom": "0x00000000000000000000000000000000000000000020000000000000000000000000000000000000000000000000000000000000000000000000000000000000000000000000000000000000000000000000000000000400000000000000000008000000000000000000000000000000000004000200000000000000000000000000001000000000000000010000000000000000000000000000000000000000000000000000000000000000000000000000000000000000000000000000000800200000000000000000000000000000000000000000000000000000000000000000000000000000000000000000000000000000000000000000000000000000",
      "type": "0x2",
      "transactionHash": "0x5ed842a21c2cd2d8d1e431e13e89df938b422bf3e117d37f2fdb269d2e5e1444",
      "transactionIndex": "0x6c",
      "blockHash": "0xe01a3f4623e0bac83197107188a28f159e7d2c79f9295c0a3df9f3e3f96a9abd",
      "blockNumber": "0x9ee363",
      "gasUsed": "0x1acd8",
      "effectiveGasPrice": "0x162c76",
      "from": "0xc7e40aa62693cf20a317207372337044f1ec0bf0",
      "to": "0x9ddfaca8183c41ad55329bdeed9f6a8d53168b1b",
      "contractAddress": null
    }
  ],
  "libraries": [],
  "pending": [],
  "returns": {},
  "timestamp": 1773033961429,
  "chain": 11155111,
  "commit": "09568f1"
}