{
  "transactions": [
    {
      "hash": "0xf78dc3fa4e77e95df98fe3d09fadf3534a2f03debdeb24dc8d3aeada97096f3d",
      "transactionType": "CALL",
      "contractName": "LinkToken",
      "contractAddress": "0x779877a7b0d9e8603169ddbd7836e478b4624789",
      "function": "transferAndCall(address,uint256,bytes)",
      "arguments": [
        "0x9DdfaCa8183c41ad55329BdeeD9F6A8d53168B1B",
        "3000000000000000000",
        "0x54197d0b8ab6b1f1674214a30090f41d18161fbc30c9249993d1e40fb655443b"
      ],
      "transaction": {
        "from": "0xc7e40aa62693cf20a317207372337044f1ec0bf0",
        "to": "0x779877a7b0d9e8603169ddbd7836e478b4624789",
        "gas": "0x1603d",
        "value": "0x0",
        "input": "0x4000aea00000000000000000000000009ddfaca8183c41ad55329bdeed9f6a8d53168b1b00000000000000000000000000000000000000000000000029a2241af62c00000000000000000000000000000000000000000000000000000000000000000060000000000000000000000000000000000000000000000000000000000000002054197d0b8ab6b1f1674214a30090f41d18161fbc30c9249993d1e40fb655443b",
        "nonce": "0x18",
        "chainId": "0xaa36a7"
      },
      "additionalContracts": [],
      "isFixedGasLimit": false
    }
  ],
  "receipts": [
    {
      "status": "0x1",
      "cumulativeGasUsed": "0x896217",
      "logs": [
        {
          "address": "0x779877a7b0d9e8603169ddbd7836e478b4624789",
          "topics": [
            "0xddf252ad1be2c89b69c2b068fc378daa952ba7f163c4a11628f55a4df523b3ef",
            "0x000000000000000000000000c7e40aa62693cf20a317207372337044f1ec0bf0",
            "0x0000000000000000000000009ddfaca8183c41ad55329bdeed9f6a8d53168b1b"
          ],
          "data": "0x00000000000000000000000000000000000000000000000029a2241af62c0000",
          "blockHash": "0xd87d7ddc686bbb0f4c24ed8c8326b10cc32921d1cd46e7f8d49939a92cc26059",
          "blockNumber": "0x9f0a57",
          "blockTimestamp": "0x69b083b0",
          "transactionHash": "0xf78dc3fa4e77e95df98fe3d09fadf3534a2f03debdeb24dc8d3aeada97096f3d",
          "transactionIndex": "0x56",
          "logIndex": "0xf2",
          "removed": false
        },
        {
          "address": "0x779877a7b0d9e8603169ddbd7836e478b4624789",
          "topics": [
            "0xe19260aff97b920c7df27010903aeb9c8d2be5d310a2c67824cf3f15396e4c16",
            "0x000000000000000000000000c7e40aa62693cf20a317207372337044f1ec0bf0",
            "0x0000000000000000000000009ddfaca8183c41ad55329bdeed9f6a8d53168b1b"
          ],
          "data": "0x00000000000000000000000000000000000000000000000029a2241af62c00000000000000000000000000000000000000000000000000000000000000000040000000000000000000000000000000000000000000000000000000000000002054197d0b8ab6b1f1674214a30090f41d18161fbc30c9249993d1e40fb655443b",
          "blockHash": "0xd87d7ddc686bbb0f4c24ed8c8326b10cc32921d1cd46e7f8d49939a92cc26059",
          "blockNumber": "0x9f0a57",
          "blockTimestamp": "0x69b083b0",
          "transactionHash": "0xf78dc3fa4e77e95df98fe3d09fadf3534a2f03debdeb24dc8d3aeada97096f3d",
          "transactionIndex": "0x56",
          "logIndex": "0xf3",
          "removed": false
        },
        {
          "address": "0x9ddfaca8183c41ad55329bdeed9f6a8d53168b1b",
          "topics": [
            "0x1ced9348ff549fceab2ac57cd3a9de38edaaab274b725ee82c23e8fc8c4eec7a",
            "0x54197d0b8ab6b1f1674214a30090f41d18161fbc30c9249993d1e40fb655443b"
          ],
          "data": "0x000000000000000000000000000000000000000000000000b469471f80140000000000000000000000000000000000000000000000000000de0b6b3a76400000",
          "blockHash": "0xd87d7ddc686bbb0f4c24ed8c8326b10cc32921d1cd46e7f8d49939a92cc26059",
          "blockNumber": "0x9f0a57",
          "blockTimestamp": "0x69b083b0",
          "transactionHash": "0xf78dc3fa4e77e95df98fe3d09fadf3534a2f03debdeb24dc8d3aeada97096f3d",
          "transactionIndex": "0x56",
          "logIndex": "0xf4",
          "removed": false
        }
      ],
      "logsBloom": "0x00000004000000000000000000000000000000000020000000000000020000000000000000000000000000000000000000000000000000000000000000000000000000000000000000000008000000000000000000000000000020000020000008000000000000000000000002000000000000000000000000000010000040000000000000000000000000010000800000000020000000000000000000000000000000000000000000000000010020010000000000000040010004000000000000000002000000000000000000000000000000000000000100000000000000020010000000000000800000000000000000000000000000000000000000000000",
      "type": "0x2",
      "transactionHash": "0xf78dc3fa4e77e95df98fe3d09fadf3534a2f03debdeb24dc8d3aeada97096f3d",
      "transactionIndex": "0x56",
      "blockHash": "0xd87d7ddc686bbb0f4c24ed8c8326b10cc32921d1cd46e7f8d49939a92cc26059",
      "blockNumber": "0x9f0a57",
      "gasUsed": "0xf0d9",
      "effectiveGasPrice": "0xf5f41",
      "from": "0xc7e40aa62693cf20a317207372337044f1ec0bf0",
      "to": "0x779877a7b0d9e8603169ddbd7836e478b4624789",
      "contractAddress": null
    }
  ],
  "libraries": [],
  "pending": [],
  "returns": {},
  "timestamp": 1773175729035,
  "chain": 11155111,
  "commit": "f9dc6c0"
}