{
  "transactions": [
    {
      "hash": "0x08f4c5236d6a12f7b8ed511913a4443b75caceff0a9357ed07033a64ddfbee46",
      "transactionType": "CALL",
      "contractName": null,
      "contractAddress": "0x9ddfaca8183c41ad55329bdeed9f6a8d53168b1b",
      "function": "createSubscription()",
      "arguments": [],
      "transaction": {
        "from": "0xc7e40aa62693cf20a317207372337044f1ec0bf0",
        "to": "0x9ddfaca8183c41ad55329bdeed9f6a8d53168b1b",
        "gas": "0x25056",
        "value": "0x0",
        "input": "0xa21a23e4",
        "nonce": "0x12",
        "chainId": "0xaa36a7"
      },
      "additionalContracts": [],
      "isFixedGasLimit": false
    },
    {
      "hash": "0x3200a68f11ee3445fc782f17bf21dc50f6e5bae73d29119c3960c9847c84096d",
      "transactionType": "CALL",
      "contractName": "LinkToken",
      "contractAddress": "0x779877a7b0d9e8603169ddbd7836e478b4624789",
      "function": "transferAndCall(address,uint256,bytes)",
      "arguments": [
        "0x9DdfaCa8183c41ad55329BdeeD9F6A8d53168B1B",
        "3000000000000000000",
        "0x78bd1918c98855db168c9c9bcbafb94074b64ec4cccabe955bbc56651e23e2e4"
      ],
      "transaction": {
        "from": "0xc7e40aa62693cf20a317207372337044f1ec0bf0",
        "to": "0x779877a7b0d9e8603169ddbd7836e478b4624789",
        "gas": "0x1c1ff",
        "value": "0x0",
        "input": "0x4000aea00000000000000000000000009ddfaca8183c41ad55329bdeed9f6a8d53168b1b00000000000000000000000000000000000000000000000029a2241af62c00000000000000000000000000000000000000000000000000000000000000000060000000000000000000000000000000000000000000000000000000000000002078bd1918c98855db168c9c9bcbafb94074b64ec4cccabe955bbc56651e23e2e4",
        "nonce": "0x13",
        "chainId": "0xaa36a7"
      },
      "additionalContracts": [],
      "isFixedGasLimit": false
    }
  ],
  "receipts": [
    {
      "status": "0x1",
      "cumulativeGasUsed": "0x28e6051",
      "logs": [
        {
          "address": "0x9ddfaca8183c41ad55329bdeed9f6a8d53168b1b",
          "topics": [
            "0x1d3015d7ba850fa198dc7b1a3f5d42779313a681035f77c8c03764c61005518d",
            "0xf88c947046baec790d660b0e118b2c577017d8202e59b7254b9562ca77e9be42"
          ],
          "data": "0x000000000000000000000000c7e40aa62693cf20a317207372337044f1ec0bf0",
          "blockHash": "0x6296296bd37c2d9b202e37239bbc4bf0d4e5f690a63de0d2b995d2327ec87da6",
          "blockNumber": "0x9ee360",
          "blockTimestamp": "0x69ae59b8",
          "transactionHash": "0x3200a68f11ee3445fc782f17bf21dc50f6e5bae73d29119c3960c9847c84096d",
          "transactionIndex": "0xfb",
          "logIndex": "0x371",
          "removed": false
        }
      ],
      "logsBloom": "0x00000000000000000000000000000000000000000020000000000000000000000000000000000000000000000000000000000000000000000000000000000000000000000000000000000000000000000000000000000400000000000000000008000000000000000000000000000000000004000000000000000000080000000000000000000000000000010000000000000000000000000000000000000000000000000000000000000000000000000000000000000000000000000000000800000000000000000000000000000000000000000002000000000000000000000000000000000000008000000000000000000000000000000000000000000000",
      "type": "0x2",
      "transactionHash": "0x3200a68f11ee3445fc782f17bf21dc50f6e5bae73d29119c3960c9847c84096d",
      "transactionIndex": "0xfb",
      "blockHash": "0x6296296bd37c2d9b202e37239bbc4bf0d4e5f690a63de0d2b995d2327ec87da6",
      "blockNumber": "0x9ee360",
      "gasUsed": "0x1acd8",
      "effectiveGasPrice": "0x1607d0",
      "from": "0xc7e40aa62693cf20a317207372337044f1ec0bf0",
      "to": "0x9ddfaca8183c41ad55329bdeed9f6a8d53168b1b",
      "contractAddress": null
    }
  ],
  "libraries": [],
  "pending": [],
  "returns": {},
  "timestamp": 1773033912876,
  "chain": 11155111,
  "commit": "09568f1"
}